:030000000206C72E
:0C06C700787FE4F6D8FD75812C02070E48
:030AD600012B00F1
:10056000E4F52CF52AFF120B14120A92120BA112B9
:100570000B3BE52A652C70030205FAE52C707BE540
:100580002A24FD602524FE603A240A604F24FA7074
:1005900069AF2BEF3395E0FEEF7803C333CE33CE54
:1005A000D8F92451F58274028049AF2BEF3395E0DE
:1005B000FEEF7803C333CE33CED8F92452F58274DC
:1005C000028030AF2BEF3395E0FEEF7803C333CEDC
:1005D00033CED8F9244FF58274028017AF2BEF3356
:1005E00095E0FEEF7803C333CE33CED8F92450F52F
:1005F0008274023EF583E493F52BAF2BEF3395E045
:10060000FEEF7803C333CE33CED8F92453F582748A
:10061000023EF583740193FA740293F912048C027A
:02062000057261
:100AD900011C00011D00021E0000021A0000012273
:0B0AE9000001210001200002180000A5
:100A9200D282D284D281A282E433F51CA284E433CE
:100AA200F51DE4F51EF51FF51AF51BF520F521F5E8
:020AB2002222FE
:100A0500E4FFA28233651C60172082083084030F3F
:100A150080027FFFA282E433F51CA284E433F51D36
:100A2500208111EF70047F02800ABF01027F03BF9E
:040A3500FF027FFD40
:010A3900229A
:10027600E4FBBF01027B05BFFF027BFBBF03027BE2
:1002860006BFFD027BFAEF6402704CC3E51F9410B3
:10029600E51E94275008051FE51F7002051EC3E5DD
:1002A6001F9414E51E94004013752201E51FB458EF
:1002B6000BE51EB40206E4F522752101D3E51B9475
:1002C60000E51A94004075D3E51B9496E51A940050
:1002D600506A7520018065EF7062C3E51F9414E5CE
:1002E6001E94005011E4F51EF51FF51AF51BF520B6
:1002F600F521F5228046E52264017038E520700F6D
:10030600C3E51A94004008051BE51B7002051AE5B3
:1003160020B4010ED3E51B9496E51A94005003759C
:100326002002E520700ED3E51B9496E51A94004052
:1003360003E4F522E521B40103E4F521D3E51F9496
:1003460014E51E940050030203EEE522702AD3E55D
:100356001B9496E51A9400401FAF21EF3395E0FEFB
:10036600C3EF9458EE64809482500D7B01E4F51E31
:10037600F51FF51AF51BF520E520B40225D3E51B7C
:100386009400E51A9400401AD3E51B9496E51A9456
:1003960000500F7B02E4F51AF51BF51EF51FF5223A
:1003A600F520E5217016C3E51F9458E51E9402401A
:1003B6000B7B03E4F51EF51FF51AF51BE521B401C9
:1003C60027C3E51F9458E51E9402401C0519E5193C
:1003D60070020518AE18FF7C007DC8120437ED4C7C
:0A03E6007006F518F5197B04AF034B
:0103F00022EA
:0F0B7E00C295D296E4F5B0D29720B7FDC2972268
:100B4E00120B7EC297C295C2968FB0D297C29722D1
:100B5E00120B7EC297D295C2968FB0D297C29722B1
:080AB400AE05AD03E4FCAF0543
:100ABC00EF14600C14600E2402700ED2A2D2A1228C
:0A0ACC00D2A2C2A122C2A2D2A1222E
:0A0B2800120ABCED131313541FFF53
:090B32005307074307B8020B4EFC
:070B6E0004FF120B32AF0679
:090B750053073F430740020B4EF9
:090B980053073F4307C0020B4E56
:0600030043073E020B4E14
:100AF500120ABCE4FEAF06120B32E4FF120B75E4DA
:0E0B0500FDE4FF120B5E0DBD40F70EBE08E7CB
:010B130022BF
:100B1400AC07120B7E7F01120003E4FF120AF5AF4B
:040B240004020B9824
:09075300C454F0FD850D147B0176
:02075C008F11FB
:10075E00120AB4AF11120B70E4FDE514AB15AA1614
:10076E00A917AF040C600B8F8275830012040AF474
:10077E0080088F8275830012040AFF120B5E0DBD76
:10078E0010D8E511120B6EE4FDE514AB15AA16A9EF
:10079E0017AF040C600B8F8275830012040AF4806D
:1007AE00088F8275830012040AFF120B5E0DBD10B6
:0107BE00D862
:0107BF002217
:0207C0008F2385
:1007C200120AB4AF23120B70E4FDE526AB27AA2868
:1007D200A929AF040C600B8F8275830012040AF4FE
:1007E20080088F8275830012040AFF120B5E0DBD12
:1007F20008D8E523120B6EE4FDE526AB27AA28A94B
:1008020029AF040C600B8F8275830012040AF480F6
:10081200088F8275830012040AFF120B5E0DBD0859
:01082200D8FD
:0108230022B2
:080622008F088B098A0A890B7D
:10062A00E50CD394045030E4F50EE50EC3950C4066
:10063A00030206C6E50E75F020A4250BF9E50A3576
:10064A00F0850915F5168917E5081425E0FFE50E6A
:10065A00120753050E80D3E4F50FE50F75F020A4B9
:10066A00250BF9E50A35F0850915F5168917E50808
:10067A001425E0FFE50F120753050FE50FC3940495
:10068A0040D8E4F510E50C24FCFFE510C39F502C7C
:10069A00E51075F020A4250BF9E50A35F085091552
:1006AA00F5168917E5081425E0FFE510C454F0FD96
:0C06BA00850D147B0212075C051080C93E
:0106C6002211
:100A3A00AE07EED3943F50097F01120B28AF068010
:100A4A0014EEC39440401AEE948050157F02120BA4
:100A5A0028EE24C0FF120B75ED54076402FF120B37
:020A6A005E220A
:10000E00000202C2020202FE82828282820200008C
:10001E004040407F4040407F404040404040400094
:10002E0002E222223E00088848390E08C80808005D
:10003E00004382423E0021712925232128700000B1
:10004E001060020CC000F8888888FF8888A8180005
:10005E0004047C0380601F80432C1028468180009E
:10006E00808282FE8282FE8282802010088660005C
:10007E008040300F0000FF000080844221100C00F1
:10008E0000048484848484848484848484040000AE
:10009E002020202020202020202020202020200072
:1000AE002010E824272424E424342C20E00000002F
:1000BE0080601F090909097F090949897F0000002D
:1000CE001060020CC000F8888888FF8888A8180085
:1000DE0004047C0380601F80432C1028468180001E
:1000EE00808282FE8282FE828280201008866000DC
:1000FE008040300F0000FF000080844221100C0071
:10010E0000FE2222FE004048C809FAE440201000FA
:10011E00807F0282FF20100C43807F000718200092
:10012E0000020CC000F0101010FF101010F00000B4
:10013E0002027F00000F040404FF0404040F0000F9
:10014E000808080808F8898E888888880808080032
:10015E0000804020180700004080403F0000000053
:10016E001060020CC000F8888888FF8888A81800E4
:10017E0004047C0380601F80432C1028468180007D
:10018E00000202C2020202FE82828282820200000B
:10019E004040407F4040407F404040404040400013
:1001AE0002E222223E00088848390E08C8080800DC
:1001BE00004382423E002171292523212870000030
:1001CE0000FE2222FE004048C809FAE4402010003A
:1001DE00807F0282FF20100C43807F0007182000D2
:1001EE0000020CC000F0101010FF101010F00000F4
:1001FE0002027F00000F040404FF0404040F000039
:10020E000808080808F8898E888888880808080071
:10021E0000804020180700004080403F0000000092
:10022E001060020CC000F8888888FF8888A8180023
:10023E0004047C0380601F80432C102846818000BC
:10024E000000000100FF086D0104020100FF08B16B
:10025E000201030200FF08F50302040300FF09393F
:08026E000403010400FF097DF7
:10086D007BFF7A00790E750C04E4F50D7F011206FD
:10087D00227BFF7A00798E750C04E4F50D7F021250
:10088D0006227BFF7A01790E750C04E4F50D7F03CA
:10089D001206227BFF7A01798E750C06E4F50D7F29
:0408AD000402062219
:1008B1007BFF7A00790E750C04750D017F0112061C
:1008C100227BFF7A00798E750C04E4F50D7F02120C
:1008D10006227BFF7A01790E750C04E4F50D7F0386
:1008E1001206227BFF7A01798E750C06E4F50D7FE5
:0408F10004020622D5
:1008F5007BFF7A00790E750C04E4F50D7F01120675
:10090500227BFF7A00798E750C04750D017F02122A
:1009150006227BFF7A01790E750C04E4F50D7F0341
:100925001206227BFF7A01798E750C06E4F50D7FA0
:040935000402062290
:100939007BFF7A00790E750C04E4F50D7F01120630
:10094900227BFF7A00798E750C04E4F50D7F021283
:1009590006227BFF7A01790E750C04750D017F0360
:100969001206227BFF7A01798E750C06E4F50D7F5C
:04097900040206224C
:10097D007BFF7A00790E750C04E4F50D7F011206EC
:10098D00227BFF7A00798E750C04E4F50D7F02123F
:10099D0006227BFF7A01790E750C04E4F50D7F03B9
:1009AD001206227BFF7A01798E750C06750D017F7B
:0409BD000402062208
:030BA100D2AF22AE
:100B3B005389F0438901758CFC758A67D2A9C28DE4
:030B4B00D28C2227
:03000B00020824C4
:10082400C0E0C0F0C083C082C0D075D000C000C09A
:1008340001C002C003C004C005C006C007758CFC1B
:10084400758A67852A2C120A051202768F2AD00728
:10085400D006D005D004D003D002D001D000D0D02F
:09086400D082D083D0F0D0E03244
:100A6C0075985053890F438920AB07AA06E4F9F80F
:100A7C007F807E70FDFC1209C1EFF404F58D858D2D
:060A8C008BC2ABD28E22EA
:0B0B8D001203F1F5993099FDC2992286
:1006D300020560E493A3F8E493A34003F68001F2D8
:1006E30008DFF48029E493A3F85407240CC8C33328
:1006F300C4540F4420C8834004F456800146F6DFF7
:10070300E4800B0102040810204080900AD6E47EA6
:10071300019360BCA3FF543F30E509541FFEE493EB
:10072300A360010ECF54C025E060A840B8E493A3B2
:10073300FAE493A3F8E493A3C8C582C8CAC583CADD
:10074300F0A3C8C582C8CAC583CADFE9DEE780BE95
:010AF4000001
:1003F100BB010689828A83E0225002E722BBFE020A
:09040100E32289828A83E493223C
:10040A00BB010CE58229F582E5833AF583E02250A7
:10041A0006E92582F8E622BBFE06E92582F8E222F1
:0D042A00E58229F582E5833AF583E493220B
:10043700BC000BBE0029EF8DF084FFADF022E4CCA9
:10044700F875F008EF2FFFEE33FEEC33FCEE9DEC72
:10045700984005FCEE9DFE0FD5F0E9E4CEFD22EDB8
:10046700F8F5F0EE8420D21CFEADF075F008EF2F02
:10047700FFED33FD4007985006D5F0F222C398FDF3
:050487000FD5F0EA2290
:1009C100C2D5E830E70FB2D5E4C39BFBE49AFAE461
:1009D10099F9E498F8EC30E717B2D51209F7120447
:1009E100CEE4C39BFBE49AFAE499F9E498F8800316
:1009F1001204CE30D50DE4C39FFFE49EFEE49DFDBD
:040A0100E49CFC2253
:06048C008A838982E473FB
:1004920075F008758200EF2FFFEE33FECD33CDCC21
:1004A20033CCC58233C5829BED9AEC99E5829840A4
:1004B2000CF582EE9BFEED9AFDEC99FC0FD5F0D681
:1004C200E4CEFBE4CDFAE4CCF9A88222B800C1B9AB
:1004D2000059BA002DEC8BF084CFCECDFCE5F0CBE9
:1004E200F97818EF2FFFEE33FEED33FDEC33FCEB22
:1004F20033FB10D703994004EB99FB0FD8E5E4F9DD
:10050200FA227818EF2FFFEE33FEED33FDEC33FCC9
:10051200C933C910D7059BE99A4007EC9BFCE99ABD
:10052200F90FD8E0E4C9FAE4CCFB2275F010EF2F02
:10053200FFEE33FEED33FDCC33CCC833C810D70702
:100542009BEC9AE899400AED9BFDEC9AFCE899F83D
:0E0552000FD5F0DAE4CDFBE4CCFAE4C8F922D0
:00000001FF
