:03000000020BC32D
:0C0BC300787FE4F6D8FD75816F020C0A03
:030D8800016E00F9
:100B2800E4F548F549F56FF56AFF12115A1210D12C
:100B38001211D21211471211AAE56A656F60FAE51F
:100B48006F6003B404F3E56A24FE601E1460162483
:100B5800FE6035240A603B24FA7043E56E75F008A0
:100B6800A4240B8035E4F56E8034AF6EE56E75F025
:100B780008A4240CF8E6F56EEF6023E56E75F0081E
:100B8800A4240BF8A6078016E56E75F008A42409BE
:100B98008008E56E75F008A4240AF8E6F56EE56E9F
:100BA80075F008A4240DF8860308E6FA08E6F98B20
:0B0BB8006B8A6CF56D1208EC020B411B
:100D8B00015C00015D00025E0000025A000001627E
:0B0D9B00000161000160000258000030
:1010D100D282D284D281A282E433F55CA284E43349
:1010E100F55DE4F55EF55FF55AF55BF560F561F5E3
:0210F100622279
:10105100E4FFA28233655C60172082083084030FAD
:1010610080027FFFA282E433F55CA284E433F55D64
:10107100208111EF70047F02800ABF01027F03BF4C
:04108100FF027FFDEE
:011085002248
:1006D600E4FBBF01027B05BFFF027BFBBF03027B7E
:1006E60006BFFD027BFAEF6402704CC3E55F94100F
:1006F600E55E94275008055FE55F7002055EC3E579
:100706005F9414E55E94004013756201E55FB4F4EE
:100716000BE55EB40106E4F562756101D3E55B9411
:1007260000E55A94004075D3E55B9496E55A94002B
:10073600506A7560018065EF7062C3E55F9414E5E9
:100746005E94005011E4F55EF55FF55AF55BF560D1
:10075600F561F5628046E56264017038E560700F08
:10076600C3E55A94004008055BE55B7002055AE54F
:1007760060B4010ED3E55B9496E55A940050037578
:100786006002E560700ED3E55B9496E55A940040EE
:1007960003E4F562E561B40103E4F561D3E55F9432
:1007A60014E55E9400500302084EE562702AD3E514
:1007B6005B9496E55A9400401FAF61EF3395E0FED7
:1007C600C3EF94F4EE64809481500D7B01E4F55EF2
:1007D600F55FF55AF55BF560E560B40225D3E55B98
:1007E6009400E55A9400401AD3E55B9496E55A9432
:1007F60000500F7B02E4F55AF55BF55EF55FF56296
:10080600F560E5617016C3E55F94F4E55E9401401A
:100816000B7B03E4F55EF55FF55AF55BE561B40124
:1008260027C3E55F94F4E55E9401401C0559E5593C
:1008360070020558AE58FF7C007DC8120897ED4C33
:0A0846007006F558F5597B04AF0366
:010850002285
:0F119B00C295D296E4F5B0D29720B7FDC2972245
:10116B0012119BC297C295C2968FB0D297C297228B
:10113400E4FF12119BD295D29675B0FFD297AFB04F
:02114400C29750
:011146002286
:10117B0012119BC297D295C2968FB0D297C297226B
:0810F300AE05AD03E4FCAF05FE
:1010FB00EF14600C14600E2402700ED2A2D2A12247
:0A110B00D2A2C2A122C2A2D2A122E8
:0911C0005307074307B802116B45
:07118B0004FF1211C0AF06C2
:0911920053073F43074002116BB3
:0911C90053073F4307C002116BFC
:0600030043073E02116BF1
:101115001210FBE4FEAF061211C0E4FF121192E4B7
:0E112500FDE4FF12117B0DBD40F70EBE08E782
:011133002299
:10115A00AC077F01120003E4FF121115AF0402115C
:01116A00C9BB
:090C4F00C454F0FD854D547B01F5
:020C58008F51BA
:100C5A001210F3AF5112118DE4FDE554AB55AA56AB
:100C6A00A957AF040C600B8F8275830012086AF4CF
:100C7A0080088F8275830012086AFF12117B0DBDEE
:100C8A0010D8E55112118BE4FDE554AB55AA56A9CB
:100C9A0057AF040C600B8F8275830012086AF480C8
:100CAA00088F8275830012086AFF12117B0DBD102E
:010CBA00D861
:010CBB002216
:020D24008F63DB
:100D26001210F3AF6312118DE4FDE566AB67AA6896
:100D3600A969AF040C600B8F8275830012086AF4F0
:100D460080088F8275830012086AFF12117B0DBD21
:100D560008D8E56312118BE4FDE566AB67AA68A9BE
:100D660069AF040C600B8F8275830012086AF480E9
:100D7600088F8275830012086AFF12117B0DBD0869
:010D8600D894
:010D87002249
:0809C0008F488B498A4A894BDC
:1009C800E54CD394045030E4F54EE54EC3954C40C5
:1009D80003020A73E54E75F020A4254BF9E54A3564
:1009E800F0854955F5568957E5481425E0FFE54E49
:1009F800120C4F054E80D3E4F54FE54F75F020A457
:100A0800254BF9E54A35F0854955F5568957E548A6
:100A18001425E0FFE54F120C4F054FE54FC3940432
:100A280040D8E4F550E54C24FCFFE550C39F503B0B
:100A3800E5481425E0FFC007E550C454F0FD854D96
:100A480054E5502404FFE433FEEF7805C333CE3376
:100A5800CED8F9254BF9E54A3E854955F5568957CB
:0B0A6800D0077B02120C58055080BA2A
:010A73002260
:080A74008B4A8A4B894C8D4D21
:100A7C00E4F54EF54FFE7F011210FBAF061211C0CC
:100A8C00E4FF121192E4FDE54D601AAB4AAA4BA9A2
:100A9C004C054FE54F854E837002054E14F58212BE
:100AAC00086AF48017AB4AAA4BA94C054FE54F8551
:100ABC004E837002054E14F58212086AFF12117BE8
:100ACC000DBD40C37F021210FBAF061211C0E4FF34
:100ADC00121192E4FDE54D601AAB4AAA4BA94C05E4
:100AEC004FE54F854E837002054E14F58212086A4D
:100AFC00F48017AB4AAA4BA94C054FE54F854E83A2
:100B0C007002054E14F58212086AFF12117B0DBD9E
:0B0B1C0040C30EEE64086003020A8272
:010B270022AB
:100DEA00AE07EED3943F501F7F011210FBED131391
:100DFA0013541F12118CED5407FF7401A8070880C1
:100E0A0002C333D8FC8030EEC39440402EEE948067
:100E1A0050297F021210FBED131313541FFF1211F6
:100E2A00C0EE24C0FF121192ED5407FF7401A80707
:0C0E3A00088002C333D8FCFF12117B2299
:10000E00000202C2020202FE82828282820200008C
:10001E004040407F4040407F404040404040400094
:10002E0002E222223E00088848390E08C80808005D
:10003E00004382423E0021712925232128700000B1
:10004E001060020CC000F8888888FF8888A8180005
:10005E0004047C0380601F80432C1028468180009E
:10006E00808282FE8282FE8282802010088660005C
:10007E008040300F0000FF000080844221100C00F1
:10008E0000048484848484848484848484040000AE
:10009E002020202020202020202020202020200072
:1000AE002010E824272424E424342C20E00000002F
:1000BE0080601F090909097F090949897F0000002D
:1000CE001060020CC000F8888888FF8888A8180085
:1000DE0004047C0380601F80432C1028468180001E
:1000EE00808282FE8282FE828280201008866000DC
:1000FE008040300F0000FF000080844221100C0071
:10010E0000FE2222FE004048C809FAE440201000FA
:10011E00807F0282FF20100C43807F000718200092
:10012E0000020CC000F0101010FF101010F00000B4
:10013E0002027F00000F040404FF0404040F0000F9
:10014E000808080808F8898E888888880808080032
:10015E0000804020180700004080403F0000000053
:10016E001060020CC000F8888888FF8888A81800E4
:10017E0004047C0380601F80432C1028468180007D
:10018E00000202C2020202FE82828282820200000B
:10019E004040407F4040407F404040404040400013
:1001AE0002E222223E00088848390E08C8080800DC
:1001BE00004382423E002171292523212870000030
:1001CE0000FE2222FE004048C809FAE4402010003A
:1001DE00807F0282FF20100C43807F0007182000D2
:1001EE0000020CC000F0101010FF101010F00000F4
:1001FE0002027F00000F040404FF0404040F000039
:10020E000808080808F8898E888888880808080071
:10021E0000804020180700004080403F0000000092
:10022E001060020CC000F8888888FF8888A8180023
:10023E0004047C0380601F80432C102846818000BC
:10024E0000000000000000000000000000000000A0
:10025E000000000000000000808000000000000090
:10026E000000000000000000000000000000000080
:10027E000000000000000000000000008080000070
:10028E000000000000000000000000000000000060
:10029E000000000000000000000000000000000050
:1002AE000000000000000000000000000000000040
:1002BE000000000000000000000000000000000030
:1002CE00000000000000000000000000000000F828
:1002DE00FC0E0666666666666667FFF666666666A8
:1002EE00E6C68606000000000000000000000000C8
:1002FE0000000000000C0C0C0C2CEC8C0D0F0E0CE6
:10030E000C0C88F87818181818000000000000006F
:10031E0000000000000000000000000000000000CF
:10032E0000000000000000000000000000000000BF
:10033E0000000000000000000000000000000000AF
:10034E00000000000000000000000000000000FFA0
:10035E001F000333333333333337FFFF3333363634
:10036E00361F0F0602000000000000000000000013
:10037E000000000000F81C060686C7C7C6E66666C3
:10038E0076363707060606060000008000000000DD
:10039E00000000000000000000000000000000004F
:1003AE00000000000000000000000000000000003F
:1003BE00000000000000000000000000000000002F
:1003CE000000000000000000000000000000FCFF24
:1003DE000000007CFE8783838383838383838383F0
:1003EE00C6FC00000000000000000000000000003D
:1003FE0000000000FCFF0000008081C4CCCC6666CB
:10040E006636303818180C08000000FF2020FC005B
:10041E00F888F800F010E000E0A0E000FE20508820
:10042E0004F05050F0007040604070067400F810F8
:10043E0070007848F8007C44CC00000000000000FA
:10044E0000000000000080C0C0C0C0C080000101DC
:10045E0000000080C0C1C1C1C18101010101C1C143
:10046E00C1C080000000000000C0C0C0C0C0C0C03D
:10047E008080000001C1C0C0C081010000000000EA
:10048E0000C0C0C0C0800000000000070080C1C0D6
:10049E00C0C0C08001000000000080C0C3C0C0C04A
:1004AE0081000000000080C0C0C0C080800000003D
:1004BE00010181C1C1C0C6C4870000000000000058
:1004CE00000000001C1F030100000081E37F1C00E0
:1004DE0000FCFF03010000000103FFFC0000000010
:1004EE000000FFFF00000000000000000000000000
:1004FE00C1F33F000000000000FFFF0000000000FD
:10050E000000000000FFFF000000001C1F030100A0
:10051E00000081E37F1C0000FCFF030100000001CE
:10052E0003FFFC007EFF81000000000103FF0000BE
:10053E00FCFF03010000000103FFFC0000000000AF
:10054E0000000000E0F0381C0C0603010000000063
:10055E00003FFFC08000000080C0FF3F0000000091
:10056E000000FFFF000000000000000080F07C0F84
:10057E00030000000000000000FFFF00000000006C
:10058E000000000000FFFF00000000E0F0381C0C2F
:10059E0006030100000000003FFFC0800000008045
:1005AE00C0FF3F008080010303030383E37F00004D
:1005BE003FFFC08000000080C0FF3F000000000031
:1005CE0000000000010303030303030303030300FE
:1005DE0000000001030303030301000000000000FC
:1005EE0000000103000000000000000203010000F3
:1005FE0000000000000000000001030000000000E9
:10060E0000000000000103000000000103030303CB
:10061E0003030303030300000000010303030303AA
:10062E0001000000010103030303030100000000A9
:10063E00000001030303030301000000000000009B
:10064E0000000000000000001F202223252627297D
:10065E002A2C2D2E303132333435363738393A3B59
:10066E003B3C3C3D3D3D3D3D3E3D3D3D3D3D3C3CB1
:10067E003B3B3A393837363534333231302E2D2C28
:10068E002A292726252322201F1D1B1A1817161468
:10069E001311100F0D0C0B0A0908070605040302AF
:1006AE000201010000000000000000000000010136
:1006BE000202030405060708090A0B0C0D0F1011A0
:0806CE0013141617181A1B1D66
:100DA6002040080000000100FF11AA01040205000E
:100DB600FF0EE90201030600FF0F320302040700DB
:100DC600FF0F7B0403010400FF0FC40505050501A1
:100DD600FF10AC0606060602FF0CBC070707070352
:030DE600FF0E46B7
:0B11AA007BFF7A02794EE4FD020A741C
:100EE900E4FF1211157BFF7A00790E754C04754DDC
:100EF900017F011209C07BFF7A00798E754C04E4E9
:100F0900F54D7F021209C07BFF7A01790E754C04F9
:100F1900E4F54D7F031209C07BFF7A01798E754C88
:090F290006E4F54D7F040209C045
:100F3200E4FF1211157BFF7A00790E754C04E4F57B
:100F42004D7F011209C07BFF7A00798E754C0475C2
:100F52004D017F021209C07BFF7A01790E754C04A4
:100F6200E4F54D7F031209C07BFF7A01798E754C3F
:090F720006E4F54D7F040209C0FC
:100F7B00E4FF1211157BFF7A00790E754C04E4F532
:100F8B004D7F011209C07BFF7A00798E754C04E40A
:100F9B00F54D7F021209C07BFF7A01790E754C0467
:100FAB00754D017F031209C07BFF7A01798E754C59
:090FBB0006E4F54D7F040209C0B3
:100FC400E4FF1211157BFF7A00790E754C04E4F5E9
:100FD4004D7F011209C07BFF7A00798E754C04E4C1
:100FE400F54D7F021209C07BFF7A01790E754C041E
:100FF400E4F54D7F031209C07BFF7A01798E754CAD
:0910040006754D017F040209C0CC
:1010AC00E4FF121115E4F548E54890065693FFC38A
:1010BC00747F9FF549FDAF48120DEA0548E548C31A
:0410CC00948040E4E8
:0110D00022FD
:100CBC00E4FF121115E4F548C374209548F549FD7D
:100CCC00AF48120DEA0548E548C3942040EA754840
:100CDC0020E54824E0F549FDAF48120DEA0548E54A
:100CEC0048C3944040EB754840E54824E0F549FD85
:100CFC00AF48120DEA0548E548C3946040EB7548CF
:100D0C0060C3749F9548F549FDAF48120DEA05483C
:070D1C00E548C3948040EAA2
:010D230022AD
:100E4600E4FF121115E4F5487D20AF48120DEA05BE
:100E560048E548C3942040F07548207D08AF481205
:100E66000DEA0548E548C3944040F07548407D20AA
:100E7600AF48120DEA0548E548C3946040F075484E
:100E8600607D08AF48120DEA0548E548C3948040E6
:010E9600F06B
:010E97002238
:0311D200D2AF2277
:101147005389F0438901758CFC758A67D2A9C28DD2
:03115700D28C2215
:03000B00020E984A
:100E9800C0E0C0F0C083C082C0D075D000C000C020
:100EA80001C002C003C004C005C006C007758CFCA1
:100EB800758A67856A6F1210511206D68F6AE56ABD
:100EC800B40403756A00D007D006D005D004D00357
:100ED800D002D001D000D0D0D082D083D0F0D0E0E2
:010EE80032D7
:1010860075985053890F438920AB07AA06E4F9F8EF
:101096007F807E70FDFC12100DEFF404F58D858DBA
:0610A6008BC2ABD28E22CA
:0B11B500120851F5993099FDC29922F3
:100BCF00020B28E493A3F8E493A34003F68001F209
:100BDF0008DFF48029E493A3F85407240CC8C33327
:100BEF00C4540F4420C8834004F456800146F6DFF6
:100BFF00E4800B0102040810204080900D88E47EF1
:100C0F00019360BCA3FF543F30E509541FFEE493EA
:100C1F00A360010ECF54C025E060A840B8E493A3B1
:100C2F00FAE493A3F8E493A3C8C582C8CAC583CADC
:100C3F00F0A3C8C582C8CAC583CADFE9DEE780BE94
:010DE9000009
:10085100BB010689828A83E0225002E722BBFE02A5
:09086100E32289828A83E49322D8
:10086A00BB010CE58229F582E5833AF583E0225043
:10087A0006E92582F8E622BBFE06E92582F8E2228D
:0D088A00E58229F582E5833AF583E49322A7
:10089700BC000BBE0029EF8DF084FFADF022E4CC45
:1008A700F875F008EF2FFFEE33FEEC33FCEE9DEC0E
:1008B700984005FCEE9DFE0FD5F0E9E4CEFD22ED54
:1008C700F8F5F0EE8420D21CFEADF075F008EF2F9E
:1008D700FFED33FD4007985006D5F0F222C398FD8F
:0508E7000FD5F0EA222C
:10100D00C2D5E830E70FB2D5E4C39BFBE49AFAE40E
:10101D0099F9E498F8EC30E717B2D512104312099C
:10102D002EE4C39BFBE49AFAE499F9E498F8800363
:10103D0012092E30D50DE4C39FFFE49EFEE49DFD05
:04104D00E49CFC2201
:0608EC008A838982E47397
:1008F20075F008758200EF2FFFEE33FECD33CDCCBD
:1009020033CCC58233C5829BED9AEC99E58298403F
:100912000CF582EE9BFEED9AFDEC99FC0FD5F0D61C
:10092200E4CEFBE4CDFAE4CCF9A88222B800C1B946
:100932000059BA002DEC8BF084CFCECDFCE5F0CB84
:10094200F97818EF2FFFEE33FEED33FDEC33FCEBBD
:1009520033FB10D703994004EB99FB0FD8E5E4F978
:10096200FA227818EF2FFFEE33FEED33FDEC33FC65
:10097200C933C910D7059BE99A4007EC9BFCE99A59
:10098200F90FD8E0E4C9FAE4CCFB2275F010EF2F9E
:10099200FFEE33FEED33FDCC33CCC833C810D7079E
:1009A2009BEC9AE899400AED9BFDEC9AFCE899F8D9
:0E09B2000FD5F0DAE4CDFBE4CCFAE4C8F9226C
:00000001FF
