:03000000020C38B7
:0C0C3800787FE4F6D8FD758131020C7F56
:0310D900013000E3
:1009F800E4F508F509F531F52CFF121129121095C7
:100A080012119B121116121173E52C653160FAE56B
:100A1800316003B404F3E52C24FE602D1460252412
:100A2800FE603F240A605424FA706EAF30EF3395AD
:100A3800E0FEEF7803C333CE33CED8F924D9F5825C
:100A48007406804EE4F5308050AF30EF3395E0FE09
:100A5800EF7803C333CE33CED8F924DAF58274069F
:100A68008030AF30EF3395E0FEEF7803C333CE33F9
:100A7800CED8F924D7F58274068017AF30EF3395B6
:100A8800E0FEEF7803C333CE33CED8F924D8F5820D
:100A980074063EF583E493F530AF30EF3395E0FE0E
:100AA800EF7803C333CE33CED8F924DBF58274064E
:100AB8003EF583E493FB740193FA740293F98B2D4A
:0A0AC8008A2EF52F120924020A11EC
:1010DC00011E00011F0002200000021C0000012460
:0B10EC0000012300012200021A000096
:10109500D282D284D281A282E433F51EA284E433C3
:1010A500F51FE4F520F521F51CF51DF522F523F5D1
:0210B5002422F3
:10101300E4FFA28233651E60172082083084030F29
:1010230080027FFFA282E433F51EA284E433F51F1E
:10103300208111EF70047F02800ABF01027F03BF8A
:04104300FF027FFD2C
:011047002286
:10070E00E4FBBF01027B05BFFF027BFBBF03027B45
:10071E0006BFFD027BFAEF6402704CC3E521941014
:10072E00E520942750080521E52170020520C3E538
:10073E00219414E52094004013752401E521B4584A
:10074E000BE520B40206E4F524752301D3E51D94D0
:10075E0000E51C94004075D3E51D9496E51C9400AD
:10076E00506A7522018065EF7062C3E5219414E52D
:10077E002094005011E4F520F521F51CF51DF5220D
:10078E00F523F5248046E52464017038E522700FC8
:10079E00C3E51C94004008051DE51D7002051CE50F
:1007AE0022B4010ED3E51D9496E51C9400500375FA
:1007BE002202E522700ED3E51D9496E51C940040AE
:1007CE0003E4F524E523B40103E4F523D3E52194F2
:1007DE0014E52094005003020886E524702AD3E520
:1007EE001D9496E51C9400401FAF23EF3395E0FE59
:1007FE00C3EF9458EE64809482500D7B01E4F52093
:10080E00F521F51CF51DF522E522B40225D3E51DD3
:10081E009400E51C9400401AD3E51D9496E51C94B3
:10082E0000500F7B02E4F51CF51DF520F521F52493
:10083E00F522E5237016C3E5219458E52094024075
:10084E000B7B03E4F520F521F51CF51DE523B40122
:10085E0027C3E5219458E5209402401C051BE51B97
:10086E007002051AAE1AFF7C007DC81208CFED4C3F
:0A087E007006F51AF51B7B04AF03AA
:01088800224D
:0F114A00C295D296E4F5B0D29720B7FDC2972296
:0D115900C297C295C2968FB0D297C297225E
:0D116600C297D295C2968FB0D297C2972241
:0810B700AE05AD03E4FCAF053A
:1010BF00EF14600C14600E2402700ED2A2D2A12283
:0A10CF00D2A2C2A122C2A2D2A12225
:091189005307074307B80211598E
:07113A0004FF121189AF064A
:0911410053073F43074002115916
:0911920053073F4307C002115945
:0600030043073E02115903
:1010F8001210BFE4FEAF06121189E4FF121141FD80
:0D110800E4FF1211660DBD40F70EBE08E8B1
:0111150022B7
:10112900AC077F01120003E4FF1210F8AF040211AB
:011139009223
:090CC400C454F0FD850F167B01FC
:020CCD008F1383
:100CCF001210B7AF1312113CE4FDE516AB17AA18BB
:100CDF00A919AF040C600B8F827583001208A2F460
:100CEF0080088F827583001208A2FF1211660DBD56
:100CFF0010D8E51312113AE4FDE516AB17AA18A99F
:100D0F0019AF040C600B8F827583001208A2F48058
:100D1F00088F827583001208A2FF1211660DBD1095
:010D2F00D8EB
:010D300022A0
:020D9A008F25A3
:100D9C001210B7AF2512113CE4FDE528AB29AA2AA5
:100DAC00A92BAF040C600B8F827583001208A2F480
:100DBC0080088F827583001208A2FF1211660DBD88
:100DCC0008D8E52512113AE4FDE528AB29AA2AA991
:100DDC002BAF040C600B8F827583001208A2F48079
:100DEC00088F827583001208A2FF1211660DBD08D0
:010DFC00D81E
:010DFD0022D3
:080AD2008F0A8B0B8A0C890DC1
:100ADA00E50ED394045030E4F510E510C3950E40AA
:100AEA0003020B85E51075F020A4250DF9E50C35F8
:100AFA00F0850B17F5188919E50A1425E0FFE510AA
:100B0A00120CC4051080D3E4F511E51175F020A488
:100B1A00250DF9E50C35F0850B17F5188919E50A45
:100B2A001425E0FFE511120CC40511E511C3940464
:100B3A0040D8E4F512E50E24FCFFE512C39F503BB2
:100B4A00E50A1425E0FFC007E512C454F0FD850F3D
:100B5A0016E5122404FFE433FEEF7805C333CE33DF
:100B6A00CED8F9250DF9E50C3E850B17F51889192C
:0B0B7A00D0077B02120CCD051280BAE0
:010B8500224D
:080B86008B0A8A0B890C8D0D0E
:100B8E00E4F50EF50FFE7F011210BFAF06121189AC
:100B9E00E4FF121141FDE50D601AAB0AAA0BA90C78
:100BAE00050FE50F850E837002050E14F5821208EF
:100BBE00A2F48017AB0AAA0BA90C050FE50F850E40
:100BCE00837002050E14F5821208A2FF1211660D33
:100BDE00BD40C37F021210BFAF06121189E4FF128F
:100BEE001141FDE50D601AAB0AAA0BA90C050FE524
:100BFE000F850E837002050E14F5821208A2F48082
:100C0E0017AB0AAA0BA90C050FE50F850E83700210
:100C1E00050E14F5821208A2FF1211660DBD40C317
:090C2E000EEE64086003020B9451
:010C3700229A
:100DFE00AE07EED3943F501F7F011210BFED1313B9
:100E0E0013541F12113BED5407FF7401A8070880FD
:100E1E0002C333D8FC8030EEC39440402EEE948053
:100E2E0050297F021210BFED131313541FFF12111E
:100E3E0089EE24C0FF121141ED5407FF7401A8077B
:0C0E4E00088002C333D8FCFF121166229A
:10000E00000202C2020202FE82828282820200008C
:10001E004040407F4040407F404040404040400094
:10002E0002E222223E00088848390E08C80808005D
:10003E00004382423E0021712925232128700000B1
:10004E001060020CC000F8888888FF8888A8180005
:10005E0004047C0380601F80432C1028468180009E
:10006E00808282FE8282FE8282802010088660005C
:10007E008040300F0000FF000080844221100C00F1
:10008E0000048484848484848484848484040000AE
:10009E002020202020202020202020202020200072
:1000AE002010E824272424E424342C20E00000002F
:1000BE0080601F090909097F090949897F0000002D
:1000CE001060020CC000F8888888FF8888A8180085
:1000DE0004047C0380601F80432C1028468180001E
:1000EE00808282FE8282FE828280201008866000DC
:1000FE008040300F0000FF000080844221100C0071
:10010E0000FE2222FE004048C809FAE440201000FA
:10011E00807F0282FF20100C43807F000718200092
:10012E0000020CC000F0101010FF101010F00000B4
:10013E0002027F00000F040404FF0404040F0000F9
:10014E000808080808F8898E888888880808080032
:10015E0000804020180700004080403F0000000053
:10016E001060020CC000F8888888FF8888A81800E4
:10017E0004047C0380601F80432C1028468180007D
:10018E00000202C2020202FE82828282820200000B
:10019E004040407F4040407F404040404040400013
:1001AE0002E222223E00088848390E08C8080800DC
:1001BE00004382423E002171292523212870000030
:1001CE0000FE2222FE004048C809FAE4402010003A
:1001DE00807F0282FF20100C43807F0007182000D2
:1001EE0000020CC000F0101010FF101010F00000F4
:1001FE0002027F00000F040404FF0404040F000039
:10020E000808080808F8898E888888880808080071
:10021E0000804020180700004080403F0000000092
:10022E001060020CC000F8888888FF8888A8180023
:10023E0004047C0380601F80432C102846818000BC
:10024E0000000000000000000000000000000000A0
:10025E000000000000000000808000000000000090
:10026E000000000000000000000000000000000080
:10027E000000000000000000000000008080000070
:10028E000000000000000000000000000000000060
:10029E000000000000000000000000000000000050
:1002AE000000000000000000000000000000000040
:1002BE000000000000000000000000000000000030
:1002CE00000000000000000000000000000000F828
:1002DE00FC0E0666666666666667FFF666666666A8
:1002EE00E6C68606000000000000000000000000C8
:1002FE0000000000000C0C0C0C2CEC8C0D0F0E0CE6
:10030E000C0C88F87818181818000000000000006F
:10031E0000000000000000000000000000000000CF
:10032E0000000000000000000000000000000000BF
:10033E0000000000000000000000000000000000AF
:10034E00000000000000000000000000000000FFA0
:10035E001F000333333333333337FFFF3333363634
:10036E00361F0F0602000000000000000000000013
:10037E000000000000F81C060686C7C7C6E66666C3
:10038E0076363707060606060000008000000000DD
:10039E00000000000000000000000000000000004F
:1003AE00000000000000000000000000000000003F
:1003BE00000000000000000000000000000000002F
:1003CE000000000000000000000000000000FCFF24
:1003DE000000007CFE8783838383838383838383F0
:1003EE00C6FC00000000000000000000000000003D
:1003FE0000000000FCFF0000008081C4CCCC6666CB
:10040E006636303818180C08000000FF2020FC005B
:10041E00F888F800F010E000E0A0E000FE20508820
:10042E0004F05050F0007040604070067400F810F8
:10043E0070007848F8007C44CC00000000000000FA
:10044E0000000000000080C0C0C0C0C080000101DC
:10045E0000000080C0C1C1C1C18101010101C1C143
:10046E00C1C080000000000000C0C0C0C0C0C0C03D
:10047E008080000001C1C0C0C081010000000000EA
:10048E0000C0C0C0C0800000000000070080C1C0D6
:10049E00C0C0C08001000000000080C0C3C0C0C04A
:1004AE0081000000000080C0C0C0C080800000003D
:1004BE00010181C1C1C0C6C4870000000000000058
:1004CE00000000001C1F030100000081E37F1C00E0
:1004DE0000FCFF03010000000103FFFC0000000010
:1004EE000000FFFF00000000000000000000000000
:1004FE00C1F33F000000000000FFFF0000000000FD
:10050E000000000000FFFF000000001C1F030100A0
:10051E00000081E37F1C0000FCFF030100000001CE
:10052E0003FFFC007EFF81000000000103FF0000BE
:10053E00FCFF03010000000103FFFC0000000000AF
:10054E0000000000E0F0381C0C0603010000000063
:10055E00003FFFC08000000080C0FF3F0000000091
:10056E000000FFFF000000000000000080F07C0F84
:10057E00030000000000000000FFFF00000000006C
:10058E000000000000FFFF00000000E0F0381C0C2F
:10059E0006030100000000003FFFC0800000008045
:1005AE00C0FF3F008080010303030383E37F00004D
:1005BE003FFFC08000000080C0FF3F000000000031
:1005CE0000000000010303030303030303030300FE
:1005DE0000000001030303030301000000000000FC
:1005EE0000000103000000000000000203010000F3
:1005FE0000000000000000000001030000000000E9
:10060E0000000000000103000000000103030303CB
:10061E0003030303030300000000010303030303AA
:10062E0001000000010103030303030100000000A9
:10063E00000001030303030301000000000000009B
:10064E0000000000000000003F4245484B4E515450
:10065E00575A5D606265676A6C6E707274757778F2
:10066E007A7B7C7D7D7E7E7E7E7E7E7E7D7D7C7BAE
:10067E007A7877757472706E6C6A676562605D5AAF
:10068E005754514E4B4845423F3C393633302D2A54
:10069E002724211E1C19171412100E0C0A09070606
:1006AE00040302010100000000000000010102032A
:1006BE00040607090A0C0E10121417191C1E212409
:1006CE00272A2D303336393C0000000100FF11730C
:1006DE000104020500FF0EAB0201030600FF0EF43B
:1006EE000302040300FF0F3D0403010400FF0F8605
:1006FE000505050501FF10480606060602FF0D3129
:0B1173007BFF7A02794EE4FD020B8640
:100EAB00E4FF1210F87BFF7A00790E750E04750FB4
:100EBB00017F01120AD27BFF7A00798E750E04E452
:100ECB00F50F7F02120AD27BFF7A01790E750E04A1
:100EDB00E4F50F7F03120AD27BFF7A01798E750E30
:090EEB0006E4F50F7F04020AD2AF
:100EF400E4FF1210F87BFF7A00790E750E04E4F516
:100F04000F7F01120AD27BFF7A00798E750E047569
:100F14000F017F02120AD27BFF7A01790E750E044B
:100F2400E4F50F7F03120AD27BFF7A01798E750EE6
:090F340006E4F50F7F04020AD265
:100F3D00E4FF1210F87BFF7A00790E750E04E4F5CC
:100F4D000F7F01120AD27BFF7A00798E750E04E4B1
:100F5D00F50F7F02120AD27BFF7A01790E750E040E
:100F6D00750F017F03120AD27BFF7A01798E750E00
:090F7D0006E4F50F7F04020AD21C
:100F8600E4FF1210F87BFF7A00790E750E04E4F583
:100F96000F7F01120AD27BFF7A00798E750E04E468
:100FA600F50F7F02120AD27BFF7A01790E750E04C5
:100FB600E4F50F7F03120AD27BFF7A01798E750E54
:090FC60006750F017F04020AD236
:10104800E4FF1210F8E4F50AE50A90065693C31374
:10105800FFC3747F9FF50BFDAF0A120DFE050AE56D
:061068000AC3948040E27F
:01106E00225F
:100D3100E4FF1210F8E4F50AC37420950AF50BFDDF
:100D4100AF0A120DFE050AE50AC3942040EA750AAE
:100D510020C37420950AF50BFDAF0A120DFE050A9A
:100D6100E50AC3944040EA750A40E50A24E0F50B20
:100D7100FDAF0A120DFE050AE50AC3946040EB754A
:100D81000A60C374A0950AF50BFDAF0A120DFE05AA
:080D91000AE50AC3948040EA60
:010D99002237
:03119B00D2AF22AE
:101116005389F0438901758CFC758A67D2A9C28D03
:03112600D28C2246
:03000B00020E5A88
:100E5A00C0E0C0F0C083C082C0D075D000C000C05E
:100E6A0001C002C003C004C005C006C007758CFCDF
:100E7A00758A67852C3112101312070E8F2CE52CF8
:100E8A00B40403752C00D007D006D005D004D003D3
:100E9A00D002D001D000D0D0D082D083D0F0D0E020
:010EAA003215
:10106F0075985053890F438920AB07AA06E4F9F806
:10107F007F807E70FDFC120FCFEFF404F58D858D10
:06108F008BC2ABD28E22E1
:0B117E00120889F5993099FDC29922F2
:100C44000209F8E493A3F8E493A34003F68001F2C5
:100C540008DFF48029E493A3F85407240CC8C333B1
:100C6400C4540F4420C8834004F456800146F6DF80
:100C7400E4800B01020408102040809010D9E47E27
:100C8400019360BCA3FF543F30E509541FFEE49375
:100C9400A360010ECF54C025E060A840B8E493A33C
:100CA400FAE493A3F8E493A3C8C582C8CAC583CA67
:100CB400F0A3C8C582C8CAC583CADFE9DEE780BE1F
:0110F70000F8
:10088900BB010689828A83E0225002E722BBFE026D
:09089900E32289828A83E49322A0
:1008A200BB010CE58229F582E5833AF583E022500B
:1008B20006E92582F8E622BBFE06E92582F8E22255
:0D08C200E58229F582E5833AF583E493226F
:1008CF00BC000BBE0029EF8DF084FFADF022E4CC0D
:1008DF00F875F008EF2FFFEE33FEEC33FCEE9DECD6
:1008EF00984005FCEE9DFE0FD5F0E9E4CEFD22ED1C
:1008FF00F8F5F0EE8420D21CFEADF075F008EF2F66
:10090F00FFED33FD4007985006D5F0F222C398FD56
:05091F000FD5F0EA22F3
:100FCF00C2D5E830E70FB2D5E4C39BFBE49AFAE44D
:100FDF0099F9E498F8EC30E717B2D5121005120919
:100FEF0066E4C39BFBE49AFAE499F9E498F880036A
:100FFF0012096630D50DE4C39FFFE49EFEE49DFD0C
:04100F00E49CFC223F
:060924008A838982E4735E
:10092A0075F008758200EF2FFFEE33FECD33CDCC84
:10093A0033CCC58233C5829BED9AEC99E582984007
:10094A000CF582EE9BFEED9AFDEC99FC0FD5F0D6E4
:10095A00E4CEFBE4CDFAE4CCF9A88222B800C1B90E
:10096A000059BA002DEC8BF084CFCECDFCE5F0CB4C
:10097A00F97818EF2FFFEE33FEED33FDEC33FCEB85
:10098A0033FB10D703994004EB99FB0FD8E5E4F940
:10099A00FA227818EF2FFFEE33FEED33FDEC33FC2D
:1009AA00C933C910D7059BE99A4007EC9BFCE99A21
:1009BA00F90FD8E0E4C9FAE4CCFB2275F010EF2F66
:1009CA00FFEE33FEED33FDCC33CCC833C810D70766
:1009DA009BEC9AE899400AED9BFDEC9AFCE899F8A1
:0E09EA000FD5F0DAE4CDFBE4CCFAE4C8F92234
:00000001FF
