:030000000206ED08
:0C06ED00787FE4F6D8FD758131020734F7
:030AFC00013000C6
:10056000E4F508F509F531F52CFF120B7E7F807E4E
:1005700025120A92120AB8120BDC120B6B120893A6
:10058000E52C653160FAE5316003B404F3E52C2411
:10059000FD602524FE603A240A604F24FA7069AF9A
:1005A00030EF3395E0FEEF7803C333CE33CED8F986
:1005B0002451F58274028049AF30EF3395E0FEEFAD
:1005C0007803C333CE33CED8F92452F58274028037
:1005D00030AF30EF3395E0FEEF7803C333CE33CE48
:1005E000D8F9244FF58274028017AF30EF3395E0CD
:1005F000FEEF7803C333CE33CED8F92450F582749E
:10060000023EF583E493F530AF30EF3395E0FEEF33
:100610007803C333CE33CED8F92453F58274023E27
:10062000F583E493FB740193FA740293F98B2D8A9A
:090630002EF52F12048C02058046
:100AFF00011E00011F0002200000021C0000012443
:0B0B0F0000012300012200021A000078
:100AB800D282D284D281A282E433F51EA284E433A6
:100AC800F51FE4F520F521F51CF51DF522F523F5B4
:020AD8002422D6
:100A2B00E4FFA28233651E60172082083084030F17
:100A3B0080027FFFA282E433F51EA284E433F51F0C
:100A4B00208111EF70047F02800ABF01027F03BF78
:040A5B00FF027FFD1A
:010A5F002274
:10027600E4FBBF01027B05BFFF027BFBBF03027BE2
:1002860006BFFD027BFAEF6402704CC3E5219410B1
:10029600E520942750080521E52170020520C3E5D5
:1002A600219414E52094004013752401E521B458E7
:1002B6000BE520B40206E4F524752301D3E51D946D
:1002C60000E51C94004075D3E51D9496E51C94004A
:1002D600506A7522018065EF7062C3E5219414E5CA
:1002E6002094005011E4F520F521F51CF51DF522AA
:1002F600F523F5248046E52464017038E522700F65
:10030600C3E51C94004008051DE51D7002051CE5AB
:1003160022B4010ED3E51D9496E51C940050037596
:100326002202E522700ED3E51D9496E51C9400404A
:1003360003E4F524E523B40103E4F523D3E521948E
:1003460014E520940050030203EEE524702AD3E559
:100356001D9496E51C9400401FAF23EF3395E0FEF5
:10036600C3EF9458EE64809482500D7B01E4F5202F
:10037600F521F51CF51DF522E522B40225D3E51D70
:100386009400E51C9400401AD3E51D9496E51C9450
:1003960000500F7B02E4F51CF51DF520F521F52430
:1003A600F522E5237016C3E5219458E52094024012
:1003B6000B7B03E4F520F521F51CF51DE523B401BF
:1003C60027C3E5219458E5209402401C051BE51B34
:1003D6007002051AAE1AFF7C007DC8120437ED4C78
:0A03E6007006F51AF51B7B04AF0347
:0103F00022EA
:100B1B00D3EF9400EE94004015E4FDFC0DBD0001F5
:0E0B2B000CED64064C70F5EF1F70E51E80E2C5
:010B39002299
:0F0B9F00C295D296E4F5B0D29720B7FDC2972247
:0D0BAE00C297C295C2968FB0D297C297220F
:0D0BBB00C297D295C2968FB0D297C29722F2
:080ADA00AE05AD03E4FCAF051D
:100AE200EF14600C14600E2402700ED2A2D2A12266
:0A0AF200D2A2C2A122C2A2D2A12208
:0A0B5800120AE2ED131313541FFFFD
:090B62005307074307B8020BAE6C
:070B8F0004FF120B62AF0628
:090B960053073F430740020BAE78
:090BD30053073F4307C0020BAEBB
:0600030043073E020BAEB4
:100B3A00120AE2E4FEAF06120B62E4FF120B96FD04
:0D0B4A00E4FF120BBB0DBD40F70EBE08E826
:010B5700227B
:100B7E00AC077F01120003E4FF120B3AAF04020B25
:010B8E00D393
:09077900C454F0FD850F167B014C
:020782008F13D3
:10078400120ADAAF13120B91E4FDE516AB17AA189F
:10079400A919AF040C600B8F8275830012040AF44C
:1007A40080088F8275830012040AFF120BBB0DBDF3
:1007B40010D8E513120B8FE4FDE516AB17AA18A9A0
:1007C40019AF040C600B8F8275830012040AF48045
:1007D400088F8275830012040AFF120BBB0DBD1033
:0107E400D83C
:0107E50022F1
:0207E6008F255D
:1007E800120ADAAF25120B91E4FDE528AB29AA2AF3
:1007F800A92BAF040C600B8F8275830012040AF4D6
:1008080080088F8275830012040AFF120BBB0DBD8E
:1008180008D8E525120B8FE4FDE528AB29AA2AA9FB
:100828002BAF040C600B8F8275830012040AF480CE
:10083800088F8275830012040AFF120BBB0DBD08D6
:01084800D8D7
:01084900228C
:080639008F0A8B0B8A0C890D5E
:10064100E50ED394045030E4F510E510C3950E4047
:10065100030206ECE51075F020A4250DF9E50C3533
:10066100F0850B17F5188919E50A1425E0FFE51047
:10067100120779051080D3E4F511E51175F020A476
:10068100250DF9E50C35F0850B17F5188919E50AE3
:100691001425E0FFE5111207790511E511C3940452
:1006A10040D8E4F512E50E24FCFFE512C39F503B50
:1006B100E50A1425E0FFC007E512C454F0FD850FDB
:1006C10016E5122404FFE433FEEF7805C333CE337D
:1006D100CED8F9250DF9E50C3E850B17F5188919CA
:0B06E100D0077B02120782051280BACE
:0106EC0022EB
:100A6000AE07EED3943F50097F01120B58AF0680BA
:100A700014EEC39440401AEE948050157F02120B7E
:100A800058EE24C0FF120B96ED54076402FF120BC0
:020A9000BB2287
:10000E00000202C2020202FE82828282820200008C
:10001E004040407F4040407F404040404040400094
:10002E0002E222223E00088848390E08C80808005D
:10003E00004382423E0021712925232128700000B1
:10004E001060020CC000F8888888FF8888A8180005
:10005E0004047C0380601F80432C1028468180009E
:10006E00808282FE8282FE8282802010088660005C
:10007E008040300F0000FF000080844221100C00F1
:10008E0000048484848484848484848484040000AE
:10009E002020202020202020202020202020200072
:1000AE002010E824272424E424342C20E00000002F
:1000BE0080601F090909097F090949897F0000002D
:1000CE001060020CC000F8888888FF8888A8180085
:1000DE0004047C0380601F80432C1028468180001E
:1000EE00808282FE8282FE828280201008866000DC
:1000FE008040300F0000FF000080844221100C0071
:10010E0000FE2222FE004048C809FAE440201000FA
:10011E00807F0282FF20100C43807F000718200092
:10012E0000020CC000F0101010FF101010F00000B4
:10013E0002027F00000F040404FF0404040F0000F9
:10014E000808080808F8898E888888880808080032
:10015E0000804020180700004080403F0000000053
:10016E001060020CC000F8888888FF8888A81800E4
:10017E0004047C0380601F80432C1028468180007D
:10018E00000202C2020202FE82828282820200000B
:10019E004040407F4040407F404040404040400013
:1001AE0002E222223E00088848390E08C8080800DC
:1001BE00004382423E002171292523212870000030
:1001CE0000FE2222FE004048C809FAE4402010003A
:1001DE00807F0282FF20100C43807F0007182000D2
:1001EE0000020CC000F0101010FF101010F00000F4
:1001FE0002027F00000F040404FF0404040F000039
:10020E000808080808F8898E888888880808080071
:10021E0000804020180700004080403F0000000092
:10022E001060020CC000F8888888FF8888A8180023
:10023E0004047C0380601F80432C102846818000BC
:10024E000000000100FF08930104020100FF08D71F
:10025E000201030200FF091B0302040300FF095FF2
:08026E000403010400FF09A3D1
:100893007BFF7A00790E750E04E4F50F7F011206D3
:1008A300397BFF7A00798E750E04E4F50F7F02120F
:1008B30006397BFF7A01790E750E04E4F50F7F0389
:1008C3001206397BFF7A01798E750E06E4F50F7FE8
:0408D30004020639DC
:1008D7007BFF7A00790E750E04750F017F011206F2
:1008E700397BFF7A00798E750E04E4F50F7F0212CB
:1008F70006397BFF7A01790E750E04E4F50F7F0345
:100907001206397BFF7A01798E750E06E4F50F7FA3
:040917000402063997
:10091B007BFF7A00790E750E04E4F50F7F0112064A
:10092B00397BFF7A00798E750E04750F017F0212E9
:10093B0006397BFF7A01790E750E04E4F50F7F0300
:10094B001206397BFF7A01798E750E06E4F50F7F5F
:04095B000402063953
:10095F007BFF7A00790E750E04E4F50F7F01120606
:10096F00397BFF7A00798E750E04E4F50F7F021242
:10097F0006397BFF7A01790E750E04750F017F031F
:10098F001206397BFF7A01798E750E06E4F50F7F1B
:04099F00040206390F
:1009A3007BFF7A00790E750E04E4F50F7F011206C2
:1009B300397BFF7A00798E750E04E4F50F7F0212FE
:1009C30006397BFF7A01790E750E04E4F50F7F0378
:1009D3001206397BFF7A01798E750E06750F017F3A
:0409E30004020639CB
:030BDC00D2AF2273
:100B6B005389F0438901758CFC758A67D2A9C28DB4
:030B7B00D28C22F7
:03000B0002084A9E
:10084A00C0E0C0F0C083C082C0D075D000C000C074
:10085A0001C002C003C004C005C006C007758CFCF5
:10086A00758A67852C31120A2B1202768F2CD007D3
:10087A00D006D005D004D003D002D001D000D0D009
:09088A00D082D083D0F0D0E0321E
:100A920075985053890F438920AB07AA06E4F9F8E9
:100AA2007F807E70FDFC1209E7EFF404F58D858DE1
:060AB2008BC2ABD28E22C4
:0B0BC8001203F1F5993099FDC299224B
:1006F900020560E493A3F8E493A34003F68001F2B2
:1007090008DFF48029E493A3F85407240CC8C33301
:10071900C4540F4420C8834004F456800146F6DFD0
:10072900E4800B0102040810204080900AFCE47E5A
:10073900019360BCA3FF543F30E509541FFEE493C5
:10074900A360010ECF54C025E060A840B8E493A38C
:10075900FAE493A3F8E493A3C8C582C8CAC583CAB7
:10076900F0A3C8C582C8CAC583CADFE9DEE780BE6F
:010B1A0000DA
:1003F100BB010689828A83E0225002E722BBFE020A
:09040100E32289828A83E493223C
:10040A00BB010CE58229F582E5833AF583E02250A7
:10041A0006E92582F8E622BBFE06E92582F8E222F1
:0D042A00E58229F582E5833AF583E493220B
:10043700BC000BBE0029EF8DF084FFADF022E4CCA9
:10044700F875F008EF2FFFEE33FEEC33FCEE9DEC72
:10045700984005FCEE9DFE0FD5F0E9E4CEFD22EDB8
:10046700F8F5F0EE8420D21CFEADF075F008EF2F02
:10047700FFED33FD4007985006D5F0F222C398FDF3
:050487000FD5F0EA2290
:1009E700C2D5E830E70FB2D5E4C39BFBE49AFAE43B
:1009F70099F9E498F8EC30E717B2D5120A1D1204FA
:100A0700CEE4C39BFBE49AFAE499F9E498F88003EF
:100A17001204CE30D50DE4C39FFFE49EFEE49DFD96
:040A2700E49CFC222D
:06048C008A838982E473FB
:1004920075F008758200EF2FFFEE33FECD33CDCC21
:1004A20033CCC58233C5829BED9AEC99E5829840A4
:1004B2000CF582EE9BFEED9AFDEC99FC0FD5F0D681
:1004C200E4CEFBE4CDFAE4CCF9A88222B800C1B9AB
:1004D2000059BA002DEC8BF084CFCECDFCE5F0CBE9
:1004E200F97818EF2FFFEE33FEED33FDEC33FCEB22
:1004F20033FB10D703994004EB99FB0FD8E5E4F9DD
:10050200FA227818EF2FFFEE33FEED33FDEC33FCC9
:10051200C933C910D7059BE99A4007EC9BFCE99ABD
:10052200F90FD8E0E4C9FAE4CCFB2275F010EF2F02
:10053200FFEE33FEED33FDCC33CCC833C810D70702
:100542009BEC9AE899400AED9BFDEC9AFCE899F83D
:0E0552000FD5F0DAE4CDFBE4CCFAE4C8F922D0
:00000001FF
